:100000000C944D010C947E010C947E010C947E01A5
:100010000C947E010C947E010C947E010C947E0164
:100020000C947E010C947E010C947E010C947E0154
:100030000C947E010C947E010C947E010C947E0144
:100040000C947E010C94BF0B0C947E010C947E01E9
:100050000C947E010C947E010C947E010C948B0A0E
:100060000C947E010C94FF0A0C94D50A0C947E012A
:100070000C947E010C947E010C947E010C947E0104
:100080000C94910B0C947E010C947E010C947E01D7
:100090000C947E010C947E010C947E010C94ED0B6B
:1000A0000C947E010C947E010C94630B0C947E01E5
:1000B0000C947E010C947E010C947E010C94350B03
:1000C0000C947E010C947E010C947E010C947E01B4
:1000D0000C947E010C947E010C947E010C947E01A4
:1000E0000C947E010C9482060C942A060C946703EF
:1000F0000C9441090C94B4030C94B9010C942F0393
:100100000C94D1020C9421030C949E010C94990739
:100110000C94B3010C9498070C94B0010C94C70193
:100120000C94DE010C94BD010C94A8010C94A40164
:100130000C94DD080C942B060C942C060C94110DD9
:100140000C94DF010C94D1010C94AC010C94E301EC
:100150000C943B060C94C3010C94D9010C94290611
:100160000C94D5010C9455060C944E060C94CB01BE
:100170000C940D030C94FE020000210024002700C3
:100180002A002D00300033000101000004010701A6
:100190000A0100002200250028002B002E0031005B
:1001A000340002010000050108010B0100002000DD
:1001B0002300260029002C002F003200000100003F
:1001C00003010601090105050505070508080808DA
:1001D000020202020A0A08080404040401010101DF
:1001E00001010101030303030303030304070707DA
:1001F0000C0C0C0C0C0C0C0C02020202060606067F
:10020000060606060B0B0B0B0B0B0B0B010210204B
:10021000200808102040102040800201020108043C
:1002200002010102040810204080804020100804D0
:100230000201800402018040201008040201080429
:10024000020101020408102040800102040810206D
:10025000408000000A0B02090C0D0E080703040180
:10026000000000000000000000000000000000008E
:10027000000000000000000000000000000012115B
:10028000100000000000000000000000000000005E
:100290000000000000000000110D11241FBECFEF70
:1002A000D1E2DEBFCDBF00E00CBF12E0A0E0B2E0C3
:1002B000ECE4F2E200E00BBF02C007900D92A23B1B
:1002C000B107D9F724E0A2EBB2E001C01D92AB3E2A
:1002D000B207E1F711E0CDE4D1E000E006C02197DC
:1002E0000109802FFE010E941511CC34D10780E056
:1002F0000807A9F70E94EE0D0C9424110C9400003D
:100300008150823108F05AC0E82FF0E08827E45786
:10031000FE4F8F4F0C941511AC01B0019E01A4014A
:10032000A801DE01B301B901BD01C301C701CB01C1
:10033000D101D501DE01D901DF01E3018091800007
:100340008F77809380000895809180008F7DF9CF12
:1003500080918000877FF5CF84B58F7784BD089525
:1003600084B58F7DFBCF8091B0008F778093B000F4
:1003700008958091B0008F7DF9CF809190008F77A4
:10038000809390000895809190008F7DF9CF8091A7
:100390009000877FF5CF8091A0008F778093A00099
:1003A00008958091A0008F7DF9CF8091A000877F74
:1003B000F5CF809120018F7780932001089580915F
:1003C00020018F7DF9CF80912001877FF5CFCF93DA
:1003D000DF93282F30E0F901EE5AFD4F8491F901A7
:1003E000E45FFD4FD491F901EA53FE4FC491CC2351
:1003F000A1F081110E948001EC2FF0E0EE0FFF1FB1
:10040000E455FE4FA591B491EC91ED2381E090E08D
:1004100009F480E0DF91CF91089580E090E0FACF79
:100420001F93CF93DF93282F30E0F901EE5AFD4F51
:100430008491F901E45FFD4FD491F901EA53FE4F35
:10044000C491CC23A9F0162F81110E948001EC2FBA
:10045000F0E0EE0FFF1FEE56FE4FA591B4918FB75F
:10046000F894EC91111108C0D095DE23DC938FBF76
:10047000DF91CF911F910895DE2BF8CFCF93DF93BB
:1004800090E0FC01E45FFD4F24918A539E4FFC01F4
:1004900084918823C9F090E0880F991FFC01E858E7
:1004A000FE4FA591B491FC01EE56FE4FC591D4913B
:1004B00061110DC09FB7F8948C91209582238C9385
:1004C0008881282328839FBFDF91CF9108956230D0
:1004D00051F49FB7F8943C91822F809583238C939D
:1004E000E8812E2BEFCF8FB7F894EC912E2B2C9325
:1004F0008FBFEACF3FB7F89480917703909178034C
:10050000A0917903B0917A0326B5A89B05C02F3F2F
:1005100019F00196A11DB11D3FBFBA2FA92F982F29
:100520008827BC01CD01620F711D811D911D42E024
:10053000660F771F881F991F4A95D1F708958F92EC
:100540009F92AF92BF92CF92DF92EF92FF924B01B8
:100550005C010E947A026B017C010E947A026C1994
:100560007D098E099F09683E734081059105A8F3B6
:1005700021E0821A9108A108B10888EEC80E83E034
:10058000D81EE11CF11C81149104A104B10429F7C7
:10059000FF90EF90DF90CF90BF90AF909F908F90A3
:1005A0000895AF92BF92CF92DF92EF92FF920F9396
:1005B0001F93CF93DF936C017B018B01040F151FF9
:1005C000EB015E01AE18BF08C017D10759F0699161
:1005D000D601ED91FC910190F081E02DC6011995B5
:1005E000892B79F7C501DF91CF911F910F91FF9072
:1005F000EF90DF90CF90BF90AF900895FC01538DA6
:10060000448D252F30E0842F90E0821B930B5417EC
:1006100010F0CF96089501970895FC01918D828D79
:10062000981761F0A28DAE0FBF2FB11D5D968C9112
:10063000928D9F5F9F73928F90E008958FEF9FEF51
:100640000895FC01918D828D981731F0828DE80F0D
:10065000F11D858D90E008958FEF9FEF0895FC01C7
:10066000918D228D892F90E0805C9F4F821B910994
:100670008F73992708958BE793E00E942F0321E061
:10068000892B09F420E0822F0895FC01A48DA80F86
:10069000B92FB11DA35ABF4F2C91848D90E00196C4
:1006A0008F739927848FA689B7892C93A089B189E4
:1006B0008C91837080648C93938D848D981306C085
:1006C0000288F389E02D80818F7D80830895EF92E9
:1006D000FF920F931F93CF93DF93EC0181E0888FFC
:1006E0009B8D8C8D98131AC0E889F989808185FFCC
:1006F00015C09FB7F894EE89FF896083E889F9896E
:1007000080818370806480839FBF81E090E0DF916F
:10071000CF911F910F91FF90EF900895F62E0B8DC2
:1007200010E00F5F1F4F0F731127E02E8C8D8E117D
:100730000CC00FB607FCFACFE889F989808185FFE4
:10074000F5CFCE010E944503F1CFEB8DEC0FFD2FCD
:10075000F11DE35AFF4FF0829FB7F8940B8FEA899F
:10076000FB8980818062CFCFCF93DF93EC01888DAE
:100770008823B9F0AA89BB89E889F9898C9185FD1C
:1007800003C0808186FD0DC00FB607FCF7CF8C91AA
:1007900085FFF2CF808185FFEDCFCE010E9445031A
:1007A000E9CFDF91CF91089580E090E0892B29F087
:1007B0000E943B0381110E94000080E090E0892BA1
:1007C00049F080E090E0892B29F00E94000081111F
:1007D0000E94000080E090E0892B49F080E090E0EA
:1007E000892B29F00E94000081110E94000080E006
:1007F00090E0892B49F080E090E0892B29F00E945D
:10080000000081110C9400000895CF92DF92EF92C6
:10081000FF92CF93DF93EC01603282E07807CCF552
:10082000653B710514F064EB70E0898128E830E0E5
:10083000281B310987FD3395220F331F220F331FE9
:100840006901330FEE08FF088A8128E532E0281B92
:10085000310987FD3395220F331F220F331F032EDB
:10086000000C440B550B2C193D094E095F09DB01A7
:1008700077FF02C0B0E0A0E00E94D01024EB30E08F
:1008800040E050E00E94A610C20ED31EE41EF51EEA
:10089000B601E881E03370F5298188E890E0821B99
:1008A000910927FD9395880F991F880F991F681745
:1008B00079077CF02A8188E592E0821B910927FD67
:1008C0009395880F991F880F991F681779070CF463
:1008D000CB010297880F991F4FB7F8942E2F30E065
:1008E000F901EE0FFF1FE20FF31FEC5DFB4F928348
:1008F00081834FBFDF91CF91FF90EF90DF90CF903A
:1009000008951F93CF93DF93EC01162F88818033D6
:1009100008F04EC061E0812F0E943E028881282F9E
:1009200030E0F901EE0FFF1FE20FF31FEC5DFB4F0C
:100930001F736081607C612B608319821A822CE0B6
:10094000622F0E940911829FB001112430E020E043
:10095000AB01420F531FFA01EE0FFF1FE40FF51F0B
:10096000EC5DFB4F908196FD16C02F5F3F4F2C3002
:10097000310571F7813009F51092800082E0809393
:1009800081001092850010928400B19A80916F00CE
:10099000826080936F00E8818E2F90E0FC01EE0F63
:1009A000FF1FE80FF91FEC5DFB4F8081806480839F
:1009B0008881DF91CF911F910895823061F4109268
:1009C000900080939100109295001092940088BB43
:1009D00080937100E0CF833069F41092A00082E030
:1009E0008093A1001092A5001092A40089BB80936F
:1009F0007200D1CF8111CFCF1092200182E080937D
:100A0000210110922501109224018ABB809373006A
:100A1000C2CFAF92BF92CF92DF92EF92FF920F932D
:100A20001F93CF93DF936B017A01EC01C459DC4F24
:100A300028813CE0389F8001399F100D1124A0903F
:100A4000B404B12C27FF1FC0FB01118210828881E2
:100A50008F5F888388819801280F311D87FD3A9523
:100A6000F6012A153B051CF488818C30C4F1808185
:100A70009181049680349C4908F473C0F60180810A
:100A80009181049670C088819801280F311D87FDDF
:100A90003A952A153B05DCF68881A801480F511DBF
:100AA00087FD5A95FA01EE0FFF1FE40FF51FEC5D6D
:100AB000FB4F808186FFCBCF8881F801E80FF11DC5
:100AC00087FDFA95CF01EE0FFF1FE80FF91FEC5DD0
:100AD000FB4F808160E08F730E941002B8CF80814D
:100AE00091812881A801420F511D27FD5A959A0135
:100AF000FA01EE0FFF1FE20FF31FEC5DFB4F2181A8
:100B00003281820F931FF70191838083888198013E
:100B1000280F311D87FD3A95F901EE0FFF1FE20FF7
:100B2000F31FEC5DFB4F808186FF22C08881080F98
:100B3000111D87FD1A95F801EE0FFF1FE00FF11F41
:100B4000EC5DFB4F808161E08F73DF91CF911F914E
:100B50000F91FF90EF90DF90CF90BF90AF900C94EB
:100B6000100280E49CE9F701918380838FEF8883F2
:100B7000DF91CF911F910F91FF90EF90DF90CF9079
:100B8000BF90AF90089520912003260F3327331F85
:100B900021323105ECF420914603FC0190E080E025
:100BA000243069F082E00895A09120032191AC01E6
:100BB00042505D4FA40FB52FB11D2C93019686179F
:100BC00098F380912003680F6093200380E00895DC
:100BD00081E008951092460381E0809348031092CB
:100BE000470361E084E10E94100261E085E10E9418
:100BF0001002E9EBF0E080818E7F808380818D7F21
:100C0000808388E48093B80085E48093BC000895D5
:100C1000CF93DF9391E09093FD028823B9F0C091C8
:100C2000B800D091BA008091BC008A7B8093BC0050
:100C300060E084E10E94100260E085E10E94100201
:100C40000E94EA05D093BA00C093B800DF91CF911B
:100C50000895089508950895E091F5028091F402B1
:100C6000E81730F4F0E0EC52FD4F808190E00895F9
:100C70008FEF9FEF08959091F5028091F4022FEF8E
:100C80003FEF981748F4E92FF0E0EC52FD4F208138
:100C900030E09F5F9093F502C90108958091F402BE
:100CA0009091F502891B990B0895CF92DF92EF92F4
:100CB000FF920F931F93CF93DF937C01CB018A01A7
:100CC0002091D302222389F0EB016B01C40ED51EC3
:100CD000CC15DD0569F06991D701ED91FC9101908A
:100CE000F081E02DC7011995F3CF642F0E94C30551
:100CF000C801DF91CF911F910F91FF90EF90DF908E
:100D0000CF900895CF93DF931F92CDB7DEB769835D
:100D10002091D3022223F9F02091F602203258F0DC
:100D200021E030E0FC013383228390E080E00F90EB
:100D3000DF91CF9108958091F702E82FF0E0ED5414
:100D4000FD4F998190838F5F8093F7028093F60225
:100D500081E090E0ECCF61E0CE0101960E94C305F6
:100D6000F7CFCF92DF92EF92FF920F931F93CF9323
:100D7000DF93FC01C48121E02093D302C093B2022F
:100D80001092F7021092F6028385682B88E194E0B6
:100D90000E948206D091F602D13208F092C00E94E1
:100DA0007A026B017C0180914603811165C082E06B
:100DB0008093460381E0809348038FEF809345033F
:100DC00010926A03D0936903A3EBB2E0E9E4F3E085
:100DD00080E0D81385C010926B0380916B03CC0F19
:100DE000C82BC0936B0380914703813009F07CC00E
:100DF000109247030E947A026B017C0180916B0381
:100E00008093BB008091F9029091FA02A091FB02BD
:100E1000B091FC02892B8A2B8B2B99F00E947A02CD
:100E20000091F9021091FA022091FB023091FC022C
:100E30006C197D098E099F090617170728073907BE
:100E4000E0F18091BC0083FDD9CF85EC8093BC009C
:100E50000E947A026B017C0180914603823009F482
:100E600045C0809145038F3F61F1809145038032F9
:100E700041F18091450325C08091F9029091FA02D9
:100E8000A091FB02B091FC02892B8A2B8B2B09F4D9
:100E90008ACF0E947A020091F9021091FA02209101
:100EA000FB023091FC026C197D098E099F0906171F
:100EB00017072807390708F076CF8091F8020E94BB
:100EC00008061092F7021092F6021092D302DF91F8
:100ED000CF911F910F91FF90EF90DF90CF900895E9
:100EE0009D9191938F5F75CF85EEB0CF8091F90280
:100EF0009091FA02A091FB02B091FC02892B8A2BFF
:100F00008B2B09F4A9CF0E947A020091F90210916B
:100F1000FA022091FB023091FC026C197D098E09C6
:100F20009F09061717072807390708F095CFC5CF7F
:100F3000089590E080E00895CF93DF93EC0160E0A6
:100F40008E810E94100261E08E810E94100260E09A
:100F50008E810E9410028BE891E00197F1F7DF91FA
:100F6000CF910895CF92DF92EF92FF920F931F934C
:100F7000CF93DF936C017C0187E0E80EF11CD0E099
:100F8000C0E0062F10E0B8010C2E02C075956795E1
:100F90000A94E2F76170F70181917F010E941002CB
:100FA0002196C430D10579F7C601DF91CF911F9109
:100FB0000F91FF90EF90DF90CF900C949C07CF9211
:100FC000DF92EF92FF920F931F93CF93DF93EC0189
:100FD000F62E642F8C810E9410028D818F3F19F0B4
:100FE00060E00E9410020F2D10E08F8584FF25C065
:100FF0006E0187E0C80ED11CF12CE12CB8010E2C3B
:1010000002C0759567950A94E2F76170F6018191C7
:101010006F010E941002FFEFEF1AFF0A88E0E81646
:10102000F10461F7CE01DF91CF911F910F91FF90F5
:10103000EF90DF90CF900C949C07B80184E07595F9
:1010400067958A95E1F7CE010E94B2076F2DCE0118
:10105000DF91CF911F910F91FF90EF90DF90CF9094
:101060000C94B20740E0682F85EB94E00C94DF0706
:10107000CF93DF93613029F09091C40498609093EE
:10108000C4046093C8041092C90490E49093CA0405
:101090008093CB04805C8093CC0461E08091B904A0
:1010A0000E943E028091BA048F3F19F061E00E94D5
:1010B0003E0261E08091BB040E943E02C5EBD4E099
:1010C0009E01255B34408091C40484FD0BC084E004
:1010D00090E021962817390744F461E08E810E9440
:1010E0003E02EECF88E090E0F4CF8BE39DE00197E5
:1010F000F1F760E08091B9040E94100260E08091F5
:10110000BB040E9410028091BA048F3F19F060E086
:101110000E9410028091C40484FD39C063E085EB15
:1011200094E00E94B207CBE4D6E4CE010197F1F738
:1011300063E085EB94E00E94B2072197F1F763E04A
:1011400085EB94E00E94B20783E592E00197F1F706
:1011500062E085EB94E00E94B2078091C404806253
:101160000E94320884E08093C5048CE00E9432081B
:1011700081E00E9432088BE39FE10197F1F782E062
:101180008093C60486E0DF91CF910C943208806290
:101190000E9432088BE496E40197F1F78091C40431
:1011A00080620E94320883E592E00197F1F7809116
:1011B000C40480620E943208D0CF41E00E94DF0761
:1011C00081E090E008950F931F93CF938C01C62F79
:1011D0000E94B1066C2F6460C8010E94B1066C2F9A
:1011E0006B7FC8010E94B10683EC90E00197F1F794
:1011F000CF911F910F9108950F931F93CF93DF937A
:101200008C01D62FC42F607F642B0E94E30880E1FD
:10121000D89FB00111246C2BC801DF91CF911F9191
:101220000F910C94E308CF93DF9300D000D01F926E
:101230001F92CDB7DEB728E0E0E0F2E0DE011196C4
:1012400001900D922A95E1F7FC012085261710F4F4
:101250006FEF620F70E0660F771F21E030E02C0F18
:101260003D1F620F731FFB016081606840E028969C
:101270000FB6F894DEBF0FBECDBFDF91CF910C94B7
:10128000FC0841E00E94FC0881E090E008950F9383
:101290001F93CF93DF93EC011092F5021092F402AA
:1012A0001092F7021092F6020E94EA0589E296E097
:1012B00090931F0380931E038AE296E0909323038A
:1012C000809322031D828A85823010F098E09D83EE
:1012D000888762E370E080E090E00E949F026B8567
:1012E000CE010E94B10668EE73E080E090E00E94BB
:1012F0009F0260E3CE010E94E3080BE416E4C801FC
:101300000197F1F760E3CE010E94E308C80101975D
:10131000F1F760E3CE010E94E30883E592E00197D4
:10132000F1F760E2CE010E94E3086D81606240E067
:10133000CE010E94FC0884E08E8340E06CE0CE0188
:101340000E94FC0840E061E0CE010E94FC080BE333
:101350001FE1C8010197F1F782E08F8340E066E06A
:10136000CE010E94FC0840E062E0CE010E94FC0831
:10137000C8010197F1F7DF91CF911F910F91089567
:10138000FB0101900020E9F73197AF01461B570B95
:10139000DC01ED91FC910280F381E02D19948F9294
:1013A0009F92AF92BF92EF92FF920F931F93CF93B2
:1013B000DF93CDB7DEB7A1970FB6F894DEBF0FBEAF
:1013C000CDBF7C01FA01CB0119A2223008F42AE03A
:1013D0008E010F5D1F4F822E912CB12CA12CBF01CD
:1013E000A50194010E94D810F901CA016A300CF5D8
:1013F000605DD8016E938D01232B242B252B79F76B
:1014000090E080E0109721F0BD01C7010E94C00963
:10141000A1960FB6F894DEBF0FBECDBFDF91CF917E
:101420001F910F91FF90EF90BF90AF909F908F9082
:101430000895695CDECFCF92DF92EF92FF92CF9357
:10144000DF936C01990FEE08FF08F7FE23C06DE2F1
:101450008BE793E00E946703EC0144275527BA010C
:101460004C195D096E097F092AE08BE793E00E9421
:10147000CF09C80FD91F6EE472E08BE793E00E949A
:10148000C0098C0F9D1FDF91CF91FF90EF90DF90EF
:10149000CF9008952AE0B701A6018BE793E00E9460
:1014A000CF09EC01E8CF85ED8093BC008091F90273
:1014B0009091FA02A091FB02B091FC020796A11D47
:1014C000B11D23E0B695A795979587952A95D1F7F5
:1014D0002091BC0024FD03C0109246030895409162
:1014E000F9025091FA026091FB027091FC02452BC7
:1014F000462B472B69F30097A105B10541F02AE27D
:101500002A95F1F700C00197A109B109E1CF8091B7
:10151000F8020C9408061F920F920FB60F92112436
:101520002F933F938F939F93AF93BF9380917303B8
:1015300090917403A0917503B0917603309172037A
:1015400023E0230F2D3758F50196A11DB11D2093DF
:1015500072038093730390937403A0937503B09305
:1015600076038091770390917803A0917903B091ED
:101570007A030196A11DB11D8093770390937803A0
:10158000A0937903B0937A03BF91AF919F918F910C
:101590003F912F910F900FBE0F901F90189526E846
:1015A000230F0296A11DB11DD2CF1F920F920FB62D
:1015B0000F9211240BB60F922F933F934F935F938B
:1015C0006F937F938F939F93AF93BF93EF93FF930B
:1015D0008BE793E00E944503FF91EF91BF91AF919C
:1015E0009F918F917F916F915F914F913F912F913B
:1015F0000F900BBE0F900FBE0F901F9018951F926B
:101600000F920FB60F9211240BB60F922F938F9358
:101610009F93EF93FF93E0918B03F0918C03808174
:10162000E0919103F091920382FD1DC09081809121
:1016300094038F5F8F7320919503821741F0E0919F
:101640009403F0E0E558FC4F958F80939403FF914D
:10165000EF919F918F912F910F900BBE0F900FBE26
:101660000F901F9018958081F2CF1F920F920FB6A6
:101670000F9211240BB60F922F933F934F935F93CA
:101680006F937F938F939F93AF93BF93EF93FF934A
:1016900048E251E064E271E090E080E00E940905D8
:1016A000FF91EF91BF91AF919F918F917F916F913A
:1016B0005F914F913F912F910F900BBE0F900FBEF6
:1016C0000F901F9018951F920F920FB60F92112432
:1016D0000BB60F922F933F934F935F936F937F932C
:1016E0008F939F93AF93BF93EF93FF9348EA50E09C
:1016F00064EA70E083E090E00E940905FF91EF91B9
:10170000BF91AF919F918F917F916F915F914F9119
:101710003F912F910F900BBE0F900FBE0F901F9017
:1017200018951F920F920FB60F9211240BB60F92BD
:101730002F933F934F935F936F937F938F939F93D9
:10174000AF93BF93EF93FF9348E950E064E970E0F3
:1017500082E090E00E940905FF91EF91BF91AF9167
:101760009F918F917F916F915F914F913F912F91B9
:101770000F900BBE0F900FBE0F901F9018951F92E9
:101780000F920FB60F9211240BB60F922F933F9327
:101790004F935F936F937F938F939F93AF93BF9379
:1017A000EF93FF9348E850E064E870E081E090E058
:1017B0000E940905FF91EF91BF91AF919F918F9189
:1017C0007F916F915F914F913F912F910F900BBE41
:1017D0000F900FBE0F901F9018951F920F920FB68B
:1017E0000F9211240BB60F922F933F934F935F9359
:1017F0006F937F938F939F93AF93BF93EF93FF93D9
:101800008091B900887F803609F44DC008F040C04F
:10181000883209F4A9C028F5803109F49DC0C8F4C4
:10182000882309F4FBC0883009F496C0FF91EF913A
:10183000BF91AF919F918F917F916F915F914F91E8
:101840003F912F910F900BBE0F900FBE0F901F90E6
:101850001895883109F488C0803241F78093450398
:1018600014C0803409F49DC040F48033B9F3883348
:10187000E9F68093450385ECB0C0803509F485C056
:10188000883509F496C0883489F60E94530ACECF71
:10189000883909F48CC038F5883729F050F4883637
:1018A00011F0803719F683E08093460310924403C9
:1018B00057C0883809F47BC0803919F0803809F0A6
:1018C000B5CF80914403803208F071C0E0914403A9
:1018D00081E08E0F809344038091BB00F0E0EC5DCB
:1018E000FC4F80833DC0803B39F0E0F4803A09F43E
:1018F00079C0883A09F09ACF84E080934603109229
:10190000210310922003E0911E03F0911F0319950B
:101910008091200381110FC081E0809320031092F9
:10192000FE0209C0803C09F4A6CF883C09F4A3CF8D
:10193000883B09F07BCFE091210381E08E0F8093FB
:101940002103F0E0E250FD4F80818093BB00909135
:1019500021038091200329C080916B038093BB00F9
:1019600085EC8093BC0062CF90916A0380916903FB
:10197000981758F5E0916A0381E08E0F80936A030F
:10198000F0E0E75BFC4F8081E9CFE0916A0381E002
:101990008E0F80936A038091BB00F0E0E75BFC4F01
:1019A000808390916A03809169039817C8F285E853
:1019B000D8CFE0916A0381E08E0F80936A03809113
:1019C000BB00F0E0E75BFC4F80838091480381110E
:1019D0005CCF81E08093470384EA8093BC0010923F
:1019E000460324CF85EC8093BC001092460380917F
:1019F0004403803230F4E0914403F0E0EC5DFC4FAE
:101A000010826091440370E0E0912203F09123037F
:101A100084E293E019951092440308CF1092450395
:101A200034CF10927E0310927D0388EE93E0A0E005
:101A3000B0E080937F0390938003A0938103B093E1
:101A4000820326E132E030937C0320937B0325EC74
:101A500030E0309388032093870324EC30E0309308
:101A60008A032093890320EC30E030938C03209389
:101A70008B0321EC30E030938E0320938D0322EC16
:101A800030E03093900320938F0326EC30E03093C6
:101A90009203209391031092940310929503109255
:101AA00096031092970310921B0410921A048093CD
:101AB0001C0490931D04A0931E04B0931F0488E29D
:101AC00092E090931904809318048091B4048033B9
:101AD00008F07CC091E0980F9093B4048093E804E0
:101AE00090E0FC01EE0FFF1FE80FF91FEC5DFB4FCC
:101AF00088EB9BE0928381838091B404803308F06B
:101B000069C091E0980F9093B4048093E50490E04D
:101B1000FC01EE0FFF1FE80FF91FEC5DFB4F88EB98
:101B20009BE0928381831092DC041092DB0426E414
:101B300032E03093DA042093D90487E28093DD0405
:101B400094E19093E20484E08093E3041092E4042F
:101B50001092D0041092CF043093CE042093CD0481
:101B600020E22093D1049093D6048093D70410925E
:101B7000D8041092B8041092B7048AE392E09093CC
:101B8000B6048093B5048CE08093B9048FEF809302
:101B9000BA048BE08093BB048AE08093BC0489E0A4
:101BA0008093BD0488E08093BE0487E08093BF04E7
:101BB0001092C0041092C1041092C2041092C30487
:101BC0001092C40461E080E10C9438088FEF809398
:101BD000E80492CF8FEF8093E504A5CF789484B585
:101BE000826084BD84B5816084BD85B5826085BD19
:101BF00085B5816085BD80916E00816080936E00A7
:101C00001092810080918100826080938100809198
:101C10008100816080938100809180008160809349
:101C200080008091B10084608093B1008091B00009
:101C300081608093B00080919100826080939100D8
:101C400080919100816080939100809190008160EB
:101C5000809390008091A10082608093A100809188
:101C6000A10081608093A1008091A0008160809399
:101C7000A000809121018260809321018091210147
:101C800081608093210180912001816080932001F7
:101C900080917A00846080937A0080917A008260DB
:101CA00080937A0080917A00816080937A0080919D
:101CB0007A00806880937A001092C100E0918B03D3
:101CC000F0918C0382E08083E0918703F091880398
:101CD0001082E0918903F0918A038FEC8083109247
:101CE0009303E0918F03F091900386E08083E0916D
:101CF0008D03F0918E03808180618083E0918D035C
:101D0000F0918E03808188608083E0918D03F09153
:101D10008E03808180688083E0918D03F0918E0333
:101D200080818F7D808363E070E088EE94E00E9484
:101D3000810465E070E085EE94E00E94810461E03A
:101D400086E00E943E0262E082E00E943E0262E083
:101D500084E00E943E0261E086E10E943E0261E072
:101D600087E10E943E0261E088E10E943E0261E05C
:101D70008EE10E943E0261E08FE10E943E0261E03E
:101D800080E20E943E0261E081E20E943E0264E045
:101D900084E10E94380802E112E0C8E0D2E08881C4
:101DA000229660E00E943E020C171D07C1F789EDE4
:101DB00094E00E9447098DEC94E00E94470918E0E6
:101DC0001093E40460E089ED94E00E94B1066CE2B7
:101DD00071E080E090E00E949F021093D80460E0E0
:101DE0008DEC94E00E94B1066CE271E080E090E03E
:101DF0000E949F0260E089ED94E00E94130961E572
:101E000072E089ED94E00E94C00962E089ED94E0FF
:101E10000E9413096CE572E089ED94E00E94C0090C
:101E200063E089ED94E00E9413096BE672E089EDAE
:101E300094E00E94C00968EE73E080E090E00E94A8
:101E40009F0260E08DEC94E00E94130961E872E06B
:101E50008DEC94E00E94C00962E08DEC94E00E9459
:101E600013096CE572E08DEC94E00E94C00963E018
:101E70008DEC94E00E9413096BE672E08DEC94E027
:101E80000E94C00968EE73E080E090E00E949F022B
:101E900088248A9493E0992EA12CB12C82E00E9490
:101EA000E7016C0184E00E94E7011C0108E012E0F8
:101EB000F12CE12CF80180810E5F1F4F0E94E70199
:101EC000019719F4FFEFEF1AFF0AC017D10791F736
:101ED00005E010E00E191F0961E009F022C186E15A
:101EE0000E94100260E087E10E94100260E088E139
:101EF0000E94100280917B00877F80937B0080E4AA
:101F000080937C0080917A00806480937A00809135
:101F10007A0086FDFCCFA0917800B09179002FEF78
:101F200030E00E941D11A50194010E94A61030937B
:101F3000710320937003C9010E941B0A80917003F2
:101F40009091710361E08C3D910524F08C3D9105E9
:101F500021F060E086E00E941002E1E08091C80478
:101F60008111E0E0E195F0E0EB54FB4F848980685B
:101F70000E9432086FE872E085EB94E00E94C0098D
:101F8000E091C804E23008F0DFC0E150F0E0EB542B
:101F9000FB4F848980680E94320864EA72E085EB16
:101FA00094E00E94C0092801012E000C6608770801
:101FB0002AE0B301A20117FF0EC041E06DE285EBFC
:101FC00094E00E94DF0744275527BA0144195509B8
:101FD000660977092AE085EB94E00E94CF0960ED5D
:101FE00077E080E090E00E949F0281E00E9432084A
:101FF0008BE39FE10197F1F761E08EE10E9410020F
:10200000CA94CD2809F049C06AE570E088EE94E0F2
:102010000E94050460E08EE10E9410028AE5E82E2D
:10202000F12CB70188EE94E00E9405046BE170E0AA
:1020300080E090E00E949F02C7010E941B0A61E0BD
:102040008FE10E94100281E090E01016110614F05A
:1020500090E080E0E81AF90AFFEFEF16FF0609F7B3
:1020600010E000E0B80188EE94E00E9405046BE106
:1020700070E080E090E00E949F02C8010E941B0A6D
:1020800061E08FE10E9410020F5F1F4F0B351105B9
:1020900049F760E08FE10E94100261E080E20E9457
:1020A00010022A942328D1F56AE570E085EE94E0C9
:1020B0000E94050460E080E20E9410020AE510E040
:1020C000B80185EE94E00E9405046BE170E080E0C9
:1020D00090E00E949F02C8010E941B0A61E081E219
:1020E0000E9410020150110958F710E000E0B801F9
:1020F00085EE94E00E9405046BE170E080E090E0E2
:102100000E949F02C8010E941B0A0F5F1F4F0B35E0
:10211000110569F760E081E20E9410020E94D40379
:10212000BDCE0330110534F487E10E94100260E057
:1021300086E1DACE88E10E94100260E086E10E942A
:10214000100260E087E1D4CEE1E020CF052E97FBBE
:102150001EF400940E94BD1057FD07D00E94D810B5
:1021600007FC03D04EF40C94BD105095409530956B
:1021700021953F4F4F4F5F4F0895909580957095F3
:1021800061957F4F8F4F9F4F08950E94FA10A59F32
:10219000900DB49F900DA49F800D911D1124089562
:1021A000B7FF0C94C5100E94C510821B930B0895B5
:1021B000A1E21A2EAA1BBB1BFD010DC0AA1FBB1F4B
:1021C000EE1FFF1FA217B307E407F50720F0A21BBD
:1021D000B30BE40BF50B661F771F881F991F1A942A
:1021E00069F760957095809590959B01AC01BD0154
:1021F000CF010895A29FB001B39FC001A39F700DAE
:10220000811D1124911DB29F700D811D1124911DFE
:102210000895991B79E004C0991F961708F0961B42
:10222000881F7A95C9F780950895EE0FFF1F881FC4
:102230008BBF0790F691E02D19940E94FA10B7FF1A
:0C2240000895821B930B0895F894FFCFC3
:10224C00000040001400540019001A001B001C0070
:10225C001D00000000006703D102FE02B4032F032F
:10226C000D032103000000008206550699072B067A
:10227C004E063B062C0600000000DD08D102990733
:10228C009807000000004109D102990798070D0A30
:10229C00004249454E56454E49444F0050756C73AB
:1022AC006520656C20426F746F6E007061726120E6
:1022BC006162726972206C61206261727265726116
:1022CC0000214861737461206C7565676F21004350
:1022DC00616E746964616420646520457370616328
:1022EC00696F7300446973706F6E69626C65733AE1
:0222FC002000C0
:00000001FF
